:100000000C94F3000C9410010C9410010C9410014A
:100010000C9410010C9410010C9410010C9410011C
:100020000C9410010C9410010C9410010C94C40455
:100030000C94E5040C9410010C9410010C94100124
:100040000C9410010C9410010C9410010C941001EC
:100050000C9410010C9410010C9410010C941001DC
:100060000C9410010C9410010C9410010C941001CC
:100070000C9410012126010700000000000100007F
:10008000CD0112000200001D0122002100002F01FD
:1000900009002200003F018E000300001901040145
:1000A000030904CF004802030904AD0020200355D2
:1000B000006E006F004A006F00790020004A006F58
:1000C00000790073007400690063006B0000004851
:1000D000034F00700065006E00430068006F0072FF
:1000E00000640020005800200052004D00490054D8
:1000F0000020004500780065007200740069006F00
:10010000006E002000470061006D00650073002054
:10011000004C00610062000000040309040902228F
:100120000001010080320904000001030000000901
:100130002111010001228E000705810340000A05FC
:10014000010905A10185011500250135004501754D
:10015000019520050919012920810205012507467D
:100160003B017504950165140939814265009501CB
:10017000810116000026FF0336000046FF03093008
:100180000931093209330934093509360937093883
:1001900009400941094209430944094509467510C6
:1001A000951081020600FF0920092109220923096F
:1001B0002409250926092709280929092A092B754F
:1001C00008950C81020A21269508B102C02601106B
:1001D0000100000040C410C18200010102000101C1
:1001E000C1320000000011241FBECFEFD2E0DEBFFD
:1001F000CDBF11E0A0E0B1E0E0E0FCE002C005907E
:100200000D92A230B107D9F721E0A2E0B1E001C020
:100210001D92A633B207E1F70E947D010C94FE0502
:100220000C9400009093CD008093CC0088E18093E3
:10023000C90086E08093CA0008952091C80027FD78
:100240000AC0EFE9FFE03197F1F700C00000019725
:10025000A1F780E008958091CE0008959091C800A4
:1002600095FFFCCF8093CE0008958091C80087FF52
:1002700003C08091CE00F9CF08954AB121E030E06B
:10028000B90102C0660F771F8A95E2F7CB01462BB2
:100290004AB99BB1809589238BB908954AB121E071
:1002A00030E0B90102C0660F771F8A95E2F7CB01F3
:1002B000962F909549234AB99BB1892B8BB9089504
:1002C0001F93CF93DF93182F0E942E0189E190E0B6
:1002D0000E941D01C82FD0E081E0810F0E942E01F5
:1002E00089E190E00E941D0190E0982F88278C0FF3
:1002F0009D1FDF91CF911F910895CF93DF93CDB7CD
:10030000DEB7A5970FB6F894DEBF0FBECDBFA89598
:1003100084B7877F84BF0FB6F894A895809160005A
:10032000886180936000109260000FBE89E190E0C8
:100330000E94120180E880936100109261000E9487
:1003400094020E94B802811119C085E00E943D010B
:100350002FEF80E792E0215080409040E1F700C00D
:10036000000085E00E944E01EFEFF0E722E0E1504F
:10037000F0402040E1F700C00000E3CF8FEF99E6A6
:10038000E8E181509040E040E1F700C00000E12C3E
:10039000F12CAA24A3948FE39CE90197F1F700C004
:1003A000000085E00E943D010E943501FE0131966A
:1003B0006F0110E0BE2E0D2D812F0E942E0189E1CC
:1003C00090E00E941D01F60181936F011F5F1430C0
:1003D00099F7812F0E942E0189E190E00E941D0172
:1003E0001F5F1830B1F788E00E942E0189E190E08C
:1003F0000E941D019D8180FB90F9282F269520FBEE
:1004000091F9282F2695269520FB92F986958695B9
:10041000869580FB93F99D8389E090E00E946001BE
:100420009F838E838BE090E00E946001998788878C
:100430008DE090E00E9460019B878A878FE090E0CA
:100440000E9460019D878C8781E190E00E9460019D
:100450009F878E8783E190E00E946001998B888B53
:1004600085E190E00E9460019B8B8A8B87E190E0A0
:100470000E9460019D8B8C8B89E190E00E9460015D
:100480009F8B8E8B8BE190E00E946001998F888F0B
:100490008DE190E00E9460019B8F8A8F8FE190E058
:1004A0000E9460019D8F8C8F81E290E00E9460012C
:1004B0009F8F8E8F83E290E00E94600199A388A3B2
:1004C00085E290E00E9460019BA38AA3FDA2ECA2BA
:1004D00087E290E00E946001F5E0EF0EF11C23E05E
:1004E000F22285E00E944E01AF928DB79EB78597AC
:1004F0000FB6F8949EBF0FBE8DBFADB7BEB71196B5
:1005000085E2EB2DF02F01900D928A95E1F70E9484
:10051000EB020FB6F894DEBF0FBECDBF3CCF80918B
:10052000E80080FFFCCF089580EA8093D80086E041
:1005300089BD80E090E009B400FC0DC0EFE9FFE068
:100540003197F1F700C000000196883EF3E09F0765
:1005500091F781E0089580E88093D8001092E00040
:10056000109203018CE08093E200789480E008957B
:1005700080910301089580910301811102C08FEFE2
:1005800008958FB7F89491E09093E9009091E4007A
:100590009E5C21E03091E80035FD0EC08FBF809158
:1005A0000301882361F38091E400981741F38FB72A
:1005B000F8942093E900EECFE4E0F1E0919190937C
:1005C000F10091E0E633F907C9F79AE39093E80068
:1005D0008FBF80E008952F923F924F925F926F926B
:1005E0007F928F929F92AF92BF92CF92DF92EF92C3
:1005F000FF920F931F93CF93DF93CDB7DEB72E9764
:100600000FB6F894DEBF0FBECDBF2996FFAC299779
:1006100008A519A51A8309838AA59BA59C838B83AA
:100620002CA43DA44EA45FA468A879A88AA89BA87E
:100630009CA99B87EDA8EC860EA90D831FA91E839C
:1006400008AD89AD8887AAACBBAC8CAD9DAD9A874F
:1006500089872EAD3FAD22964EAD5FAD2297249691
:100660006EAD7FAD24972696EEADFFAD269728960A
:10067000AEADBFAD2897F0920401CBA0DCA0EDA0F9
:10068000FEA0C0920501D0920601E0920701F0920F
:10069000080198E0F92EF0920901FFA09F2D9170BA
:1006A000F1FE0FC0992319F087E0E82E04C0F2FE96
:1006B00005C0EE24E394E09209011EC010920901E6
:1006C0001BC0F3FE0DC0992319F015E0E12E0CC0FC
:1006D000F2FE03C093E0E92E07C084E0E82E04C0D8
:1006E000992329F016E0E12EE09209014AC1F2FEB9
:1006F00048C192E0E92EF8CFEE24EA94E0922A0174
:10070000F2FE05C0EE24EA94E0922B0102C01092A2
:100710002B01F3FE05C0EE24EA94E0922C0102C006
:1007200010922C01F0FE05C0FF24FA94F0922D01E6
:1007300002C010922D01E980FA80F7FC09C0E11493
:1007400014E0F1063CF08FEF93E09A83898302C0B6
:100750001A821982EB80FC80F7FC09C0E11414E0D6
:10076000F1063CF08FEF93E09C838B8302C01C82E8
:100770001B8237FC09C0211494E039063CF0222486
:100780002A9483E0382E02C0212C312C57FC09C05A
:10079000411414E051063CF044244A9413E0512ED5
:1007A00002C0412C512C77FC09C0611484E078060A
:1007B0003CF066246A9493E0792E02C0612C712C7F
:1007C00097FC09C0811494E099063CF088248A942F
:1007D00083E0982E02C0812C912CCB84DC84C11440
:1007E00014E0D10624F0CC24CA9413E0D12EED807D
:1007F000FE80E11484E0F80624F0EE24EA9493E00D
:10080000F92E0D8798859E870D851E85011514404C
:1008100024F00FEF13E01E870D87B7FC09C0A11469
:1008200014E0B1063CF0AA24AA9483E0B82E02C0DA
:10083000A12CB12C89859A8597FD08C0811594401B
:100840003CF08FEF93E09A87898702C01A86198659
:1008500037FD07C0211594E039072CF02FEF33E066
:1008600002C020E030E057FD07C0411504E050070A
:100870002CF04FEF53E002C040E050E077FD07C09E
:10088000611514E071072CF06FEF73E002C060E0B7
:1008900070E0F7FD07C0E11584E0F8072CF0EFEFFA
:1008A000F3E002C0E0E0F0E0B7FD07C0A11594E07E
:1008B000B9072CF0AFEFB3E002C0A0E0B0E00981CF
:1008C0001A8110930B0100930A018B819C819093F4
:1008D0000D0180930C0130920F0120920E01509275
:1008E00011014092100170921301609212019092D6
:1008F000150180921401D0921701C0921601F09256
:100900001901E0921801ED84FE84F0921B01E0923F
:100910001A01B0921D01A0921C0109851A8510933D
:100920001F0100931E013093210120932001509359
:100930002301409322017093250160932401F093D9
:100940002701E0932601B0932901A09328012E9658
:100950000FB6F894DEBF0FBECDBFDF91CF911F91D0
:100960000F91FF90EF90DF90CF90BF90AF909F904E
:100970008F907F906F905F904F903F902F900C944E
:10098000BB0210922A01BCCE1F920F920FB60F929B
:1009900011248F938091E1001092E10083FF0FC03A
:1009A0001092E90081E08093EB001092EC0082E36A
:1009B0008093ED0088E08093F000109203018F9106
:1009C0000F900FBE0F901F9018951F920F920FB6A9
:1009D0000F9211242F933F934F935F936F937F93C5
:1009E0008F939F93AF93BF93CF93DF93EF93FF9337
:1009F0001092E9008091E80083FFEAC09091F10035
:100A00008091F100C091F1002091F100D0E0D22B53
:100A10002091F1004091F10030E0342B4091F10041
:100A20005091F10062EF6093E800863009F049C010
:100A30008CE790E0FC0165917491C617D707E1F44B
:100A4000FC0132966591749126173707A9F4FC01D1
:100A5000349665917491FC0136968491242F30E090
:100A6000352B2F3F310519F010F02FEF30E028170C
:100A700008F4822F3EEF0DC0079660E08D3A96078E
:100A8000C9F6A6C0690F711D891B3093E800882341
:100A9000A9F09091E800292F2570D9F392FD9BC011
:100AA000982F813408F090E4FB01292F222351F381
:100AB00044914093F10021503196F8CF903449F39E
:100AC0008AC0853049F48EEF8093E8000E948F023F
:100AD000C068C093E3007FC0893059F591113BC0D5
:100AE000C09303018EEF8093E80041E08FED91E029
:100AF0004093E9009C012F5F3F4FFC0154915093BC
:100B0000EB00552359F0F90124912093EC009C014E
:100B10002D5F3F4F3196E491E093ED004F5F4530FC
:100B200011F0C901E5CF8EE18093EA001092EA004E
:100B300052C0883039F4903871F40E948F0280914D
:100B400003012AC0811107C00E948F021092F10098
:100B50001092F10039C0232BD9F5913A01F581307B
:100B600071F40E948F02E4E7F0E08CE790E02491BA
:100B70002093F10031968E179F07C9F725C0823068
:100B800029F40E948F028091020106C0833001F592
:100B90000E948F02809100018093F10015C0913274
:100BA000B9F4893041F48091E80082FFFCCF8BEFEB
:100BB0008093E80009C08A3019F4D093020104C080
:100BC0008B3031F4C09300018EEF8093E80003C0B6
:100BD00081E28093EB00FF91EF91DF91CF91BF9184
:100BE000AF919F918F917F916F915F914F913F91C5
:100BF0002F910F900FBE0F901F901895F894FFCF74
:020C00000100F1
:00000001FF
