:100000000C94EC000C9409010C9409010C94090166
:100010000C9409010C9409010C9409010C94090138
:100020000C9409010C9409010C9409010C948603A9
:100030000C94A7030C9409010C9409010C94090178
:100040000C9409010C9409010C9409010C94090108
:100050000C9409010C9409010C9409010C940901F8
:100060000C9409010C9409010C9409010C940901E8
:100070000C94090121260107000000000001000086
:10008000BF0112000200001D0122002100002F010B
:1000900009002200003F0180000300001901040153
:1000A000030904CF004802030904AD0020200355D2
:1000B000006E006F004A006F00790020004A006F58
:1000C00000790073007400690063006B0000004851
:1000D000034F00700065006E00430068006F0072FF
:1000E00000640020005800200052004D00490054D8
:1000F0000020004500780065007200740069006F00
:10010000006E002000470061006D00650073002054
:10011000004C00610062000000040309040902228F
:100120000001010080320904000001030000000901
:1001300021110100012280000705810340000A050A
:10014000010905A10185011500250135004501754D
:10015000019520050919012920810205012507467D
:100160003B017504950165140939814265009501CB
:10017000810116000026FF0336000046FF03093008
:100180000931093209330934093509360937093883
:100190007510950981020600FF092009210922092D
:1001A00023092409250926092709280929092A09D3
:1001B0002B7508950C81020A21269508B102C018FA
:1001C00001100100000040C410C1820001010200C2
:1001D0000101C1320000000011241FBECFEFD2E0A8
:1001E000DEBFCDBF11E0A0E0B1E0E4E8F9E002C07D
:1001F00005900D92A230B107D9F721E0A2E0B1E05D
:1002000001C01D92A832B207E1F70E9459010C9477
:10021000C0040C9400009093CD008093CC0088E142
:100220008093C90086E08093CA0008952091C80099
:1002300027FD0AC0EFE9FFE03197F1F700C00000A9
:100240000197A1F780E008958091CE0008959091E4
:10025000C80095FFFCCF8093CE0008958091C80020
:1002600087FF03C08091CE00F9CF08954AB121E005
:1002700030E0B90102C0660F771F8A95E2F7CB0123
:10028000462B4AB99BB1809589238BB908954AB111
:1002900021E030E0B90102C0660F771F8A95E2F7CE
:1002A000CB01962F909549234AB99BB1892B8BB9E5
:1002B0000895CF93DF93CDB7DEB767970FB6F89465
:1002C000DEBF0FBECDBFA89584B7877F84BF0FB6B2
:1002D000F894A895809160008861809360001092E6
:1002E00060000FBE89E190E00E940B0180E88093DE
:1002F0006100109261000E9417020E943B0281116E
:1003000019C085E00E9436012FEF80E792E021506E
:1003100080409040E1F700C0000085E00E94470166
:10032000EFEFF0E722E0E150F0402040E1F700C0BD
:100330000000E3CF8FEF99E6E8E181509040E04084
:10034000E1F700C0000000E010E0AA24A3948FE3CE
:100350009CE90197F1F700C0000085E00E9436019A
:100360000E942E01FE0131966F01F12CBE2EED2C64
:100370008F2D0E94270189E190E00E941601F6016D
:1003800081936F01F394F4E0FF12F2CF84E00E94B6
:10039000270189E190E00E9416019D8180FB90F980
:1003A000282F269520FB91F9282F2695269520FBAE
:1003B00092F986958695869580FB93F99D831F8398
:1003C0000E83198708871B870A871D870C871F875D
:1003D0000E87198B088B1B8B0A8B1D8B0C8B1F8B2D
:1003E0000E8B0F5F1F4F137085E00E944701AF9285
:1003F0008DB79EB747970FB6F8949EBF0FBE8DBFBF
:10040000ADB7BEB7119687E1EB2DFE2D01900D9291
:100410008A95E1F70E946E020FB6F894DEBF0FBE18
:10042000CDBF95CF8091E80080FFFCCF089580EA92
:100430008093D80086E089BD80E090E009B400FC9C
:100440000DC0EFE9FFE03197F1F700C00000019621
:10045000883EF3E09F0791F781E0089580E880935C
:10046000D8001092E000109203018CE08093E2002B
:10047000789480E0089580910301089580910301AC
:10048000811102C08FEF08958FB7F89491E0909397
:10049000E9009091E4009E5C21E03091E80035FD98
:1004A0000EC08FBF80910301882361F38091E40027
:1004B000981741F38FB7F8942093E900EECFE4E06A
:1004C000F1E091919093F10091E0E832F907C9F7DA
:1004D0009AE39093E8008FBF80E008954F925F9277
:1004E0006F927F928F929F92AF92BF92CF92DF9244
:1004F000EF92FF920F931F93CF93DF93CDB7DEB7A9
:100500008AA5288D398D4A8D5B8D6C8D7D8DEE8D04
:10051000FF8DA8A1B9A10AA11BA1ECA0DDA0CEA0CE
:10052000BFA0A8A499A4809304014B885C886D881F
:100530007E884092050150920601609207017092F8
:10054000080188E0809309018F89982F9170792E96
:10055000982F9870F92E81FF0FC0772019F097E03F
:10056000892E04C082FF05C08824839480920901EB
:100570001EC0109209011BC0992369F0772019F061
:1005800095E0892E0CC082FF03C093E0892E07C03E
:1005900094E0892E04C0772029F096E0892E80927D
:1005A0000901B1C082FFAFC092E0892EF8CF882444
:1005B0008A9480921C0182FF04C08FEF80931D01FA
:1005C00002C010921D01FF2021F08FEF80931E01C9
:1005D00002C010921E01772021F08FEF80931F013F
:1005E00002C010921F0137FD07C0211584E03807B3
:1005F0002CF02FEF33E002C020E030E057FD07C0C1
:10060000411594E059072CF04FEF53E002C040E051
:1006100050E077FD07C0611584E078072CF06FEF9C
:1006200073E002C060E070E0F7FD07C0E11594E000
:10063000F9072CF0EFEFF3E002C0E0E0F0E0B7FDE7
:1006400007C0A11584E0B8072CF0AFEFB3E002C0FB
:10065000A0E0B0E017FD07C0011594E019072CF0E9
:100660000FEF13E002C000E010E030930B01209385
:100670000A0150930D0140930C0170930F01609398
:100680000E01F0931101E0931001B0931301A093B8
:10069000120110931501009314018E2D9D2D8115CB
:1006A00024E0920714F08FEF93E09093170180936A
:1006B00016018C2D9B2D811524E0920714F08FEFED
:1006C00093E090931901809318018A2D992D81153B
:1006D00024E0920714F08FEF93E090931B01809336
:1006E0001A01DF91CF911F910F91FF90EF90DF9052
:1006F000CF90BF90AF909F908F907F906F905F90C2
:100700004F900C943E0210921C0155CF1F920F92F5
:100710000FB60F9211248F938091E1001092E100A7
:1007200083FF0FC01092E90081E08093EB001092EC
:10073000EC0082E38093ED0088E08093F00010925B
:1007400003018F910F900FBE0F901F9018951F926D
:100750000F920FB60F9211242F933F934F935F93F5
:100760006F937F938F939F93AF93BF93CF93DF93B9
:10077000EF93FF931092E9008091E80083FFEAC0B5
:100780009091F1008091F100C091F1002091F10071
:10079000D0E0D22B2091F1004091F10030E0342BD9
:1007A0004091F1005091F10062EF6093E8008630D3
:1007B00009F049C08CE790E0FC0165917491C6177F
:1007C000D707E1F4FC01329665917491261737073B
:1007D000A9F4FC01349665917491FC0136968491DC
:1007E000242F30E0352B2F3F310519F010F02FEF7B
:1007F00030E0281708F4822F3EEF0DC0079660E026
:100800008D3A9607C9F6A6C0690F711D891B3093F2
:10081000E8008823A9F09091E800292F2570D9F3EA
:1008200092FD9BC0982F813408F090E4FB01292FA2
:10083000222351F344914093F10021503196F8CF97
:10084000903449F38AC0853049F48EEF8093E800F4
:100850000E941202C068C093E3007FC0893059F53E
:1008600091113BC0C09303018EEF8093E80041E0FB
:1008700081ED91E04093E9009C012F5F3F4FFC0127
:1008800054915093EB00552359F0F9012491209392
:10089000EC009C012D5F3F4F3196E491E093ED0019
:1008A0004F5F453011F0C901E5CF8EE18093EA003A
:1008B0001092EA0052C0883039F4903871F40E94E6
:1008C0001202809103012AC0811107C00E94120206
:1008D0001092F1001092F10039C0232BD9F5913A12
:1008E00001F5813071F40E941202E4E7F0E08CE738
:1008F00090E024912093F10031968E179F07C9F75D
:1009000025C0823029F40E9412028091020106C0A3
:10091000833001F50E941202809100018093F10062
:1009200015C09132B9F4893041F48091E80082FF1A
:10093000FCCF8BEF8093E80009C08A3019F4D09384
:10094000020104C08B3031F4C09300018EEF80931C
:10095000E80003C081E28093EB00FF91EF91DF910B
:10096000CF91BF91AF919F918F917F916F915F9147
:100970004F913F912F910F900FBE0F901F901895A0
:04098000F894FFCF19
:02098400010070
:00000001FF
