:100000000C942A010C9447010C9447010C9447016D
:100010000C9447010C9447010C9447010C94470140
:100020000C9447010C9447010C9447010C9465040F
:100030000C9486040C9447010C9447010C944701DE
:100040000C9447010C9447010C9447010C94470110
:100050000C9447010C9447010C9447010C94470100
:100060000C9447010C9447010C9447010C944701F0
:100070000C94470121260107000000000001000048
:100080003B0212000200001D0122002100002F018E
:1000900009002200003F01FC0003000019010401D7
:1000A000030904CF004802030904AD0020200355D2
:1000B000006E006F004A006F00790020004A006F58
:1000C00000790073007400690063006B0000004851
:1000D000034F00700065006E00430068006F0072FF
:1000E00000640020005800200052004D00490054D8
:1000F0000020004500780065007200740069006F00
:10010000006E002000470061006D00650073002054
:10011000004C00610062000000040309040902228F
:100120000001010080320904000001030000000901
:10013000211101000122FC000705810340000A058E
:10014000010905A10185011500250135004501754D
:10015000019520050919012920810205012507467D
:100160003B017504950165140939814265009501CB
:10017000810116000026FF0336000046FF03093008
:10018000093109320933093409350936093775103F
:10019000950881020600FF09200921092209230987
:1001A0002409250926092709280929092A092B755F
:1001B00008950C81020A21269508B102C0050109A3
:1001C00005A1018502150025013500450175019540
:1001D00020050919012920810205012507463B0157
:1001E0007504950165140939814265009501810105
:1001F00016000026FF0336000046FF0309300931D0
:10020000093209330934093509360937751095085B
:1002100081020600FF092009210922092309240976
:10022000250926092709280929092A092B7508956E
:100230000C81020A21269508B102C01201100100AA
:10024000000040C410C18200010102000101C1325E
:100250000000000011241FBECFEFD2E0DEBFCDBFF3
:1002600011E0A0E0B1E0E2E4FBE002C005900D92F5
:10027000A230B107D9F721E0A2E0B1E001C01D92A0
:10028000A632B207E1F70E94B4010C949F050C94CA
:1002900000009093CD008093CC0088E18093C9004A
:1002A00086E08093CA0008952091C80027FD0AC007
:1002B000EFE9FFE03197F1F700C000000197A1F7E7
:1002C00080E008958091CE0008959091C80095FF38
:1002D000FCCF8093CE0008958091C80087FF03C0B3
:1002E0008091CE00F9CF08954AB121E030E0B90104
:1002F00002C0660F771F8A95E2F7CB01462B4AB9F9
:100300009BB1809589238BB908954AB121E030E0F3
:10031000B90102C0660F771F8A95E2F7CB01962FCD
:10032000909549234AB99BB1892B8BB908951F93A6
:10033000CF93DF93182F0E94650189E190E00E941E
:100340005401C82FD0E081E0810F0E94650189E14E
:1003500090E00E94540190E0982F88278C0F9D1FF9
:10036000DF91CF911F910895CF93DF93CDB7DEB783
:10037000AA970FB6F894DEBF0FBECDBFA89584B77D
:10038000877F84BF0FB6F894A8958091600088613C
:1003900080936000109260000FBE89E190E00E949F
:1003A000490180E880936100109261000E9402037D
:1003B0000E942603811119C085E00E9474012FEF6D
:1003C00080E792E0215080409040E1F700C00000BB
:1003D00085E00E948501EFEFF0E722E0E150F04078
:1003E0002040E1F700C00000E3CF8FEF99E6E8E19D
:1003F00081509040E040E1F700C00000DD24D3943C
:1004000082E0E82E8FE39CE90197F1F700C000003D
:1004100085E00E9474010E946C015E0196E1A90EC4
:10042000B11C10E0812F0E94650189E190E00E94DB
:100430005401F50181935F011F5F143099F7CE01DC
:1004400001965C01F82E0B2D812F0E94650189E138
:1004500090E00E945401F50181935F011F5F183005
:1004600099F788E00E94650189E190E00E945401BB
:100470009A8D80FB90F9282F269520FB91F9282F43
:100480002695269520FB92F9282F269526952695C8
:1004900020FB93F99A8F282F22952F709D8120FBA6
:1004A00090F9282F22952695277020FB91F9282F67
:1004B000229526952695237020FB92F9881F882780
:1004C000881F80FB93F99D8389E090E00E9497014B
:1004D0009C8F8B8F8BE090E00E9497019E8F8D8F79
:1004E0008DE090E00E94970198A38F8F8FE090E0BD
:1004F0000E9497019AA389A381E190E00E9497014D
:100500009CA38BA383E190E00E9497019EA38DA3FF
:1005100085E190E00E94970198A78FA387E190E082
:100520000E9497019AA789A789E190E00E9497010C
:100530009F838E838BE190E00E9497019987888743
:100540008DE190E00E9497019B878A878FE190E080
:100550000E9497019D878C8781E290E00E9497011D
:100560009F878E8783E290E00E949701998B888B0A
:1005700085E290E00E9497019B8B8A8B87E290E056
:100580000E9497019D8B8C8B85E00E948501DF92F4
:100590008DB79EB745970FB6F8949EBF0FBE8DBF1F
:1005A000ADB7BEB7119685E1FE01769601900D922A
:1005B0008A95E1F70E945903EFE3FCE93197F1F7DF
:1005C00000C00000EF928DB79EB745970FB6F89424
:1005D0009EBF0FBE8DBFADB7BEB7119685E1EF2DA3
:1005E000F02F01900D928A95E1F70E9459030FB602
:1005F000F894DEBF0FBECDBF05CF8091E80080FF2D
:10060000FCCF089580EA8093D80086E089BD80E021
:1006100090E009B400FC0DC0EFE9FFE03197F1F77D
:1006200000C000000196883EF3E09F0791F781E04B
:10063000089580E88093D8001092E00010920301A2
:100640008CE08093E200789480E00895809103012B
:10065000089580910301811102C08FEF08958FB733
:10066000F89491E09093E9009091E4009E5C21E081
:100670003091E80035FD0EC08FBF809103018823C3
:1006800061F38091E400981741F38FB7F8942093B9
:10069000E900EECFE4E0F1E091919093F10091E078
:1006A000E632F907C9F79AE39093E8008FBF80E03C
:1006B00008958F929F92AF92BF92CF92DF92EF9266
:1006C000FF920F931F93CF93DF93CDB7DEB78CA12B
:1006D0002C893D894E895F89688D798DEA8DFB8DE6
:1006E000AC8DBD8D0E8D1F8DE8A0F9A0CAA0DBA03A
:1006F000809304018F849888A988BA888092050124
:1007000090920601A0920701B092080188E08093C0
:1007100009018B89982F9170992E982F9870B92E76
:1007200081FF0FC0992019F097E0A92E04C082FF25
:1007300005C0AA24A394A09209011EC01092090129
:100740001BC0992369F0992019F095E0A92E0CC0DF
:1007500082FF03C093E0A92E07C094E0A92E04C035
:10076000992029F096E0A92EA0920901ABC082FF42
:10077000A9C092E0A92EF8CFAA24AA94A0921A01A7
:1007800082FF04C08FEF80931B0102C010921B01F7
:10079000BB2021F08FEF80931C0102C010921C013E
:1007A000992021F08FEF80931D0102C010921D014E
:1007B00037FD07C0211584E038072CF02FEF33E018
:1007C00002C020E030E057FD07C0411594E0590712
:1007D0002CF04FEF53E002C040E050E077FD07C03F
:1007E000611584E078072CF06FEF73E002C060E0E1
:1007F00070E0F7FD07C0E11594E0F9072CF0EFEF8A
:10080000F3E002C0E0E0F0E0B7FD07C0A11584E02E
:10081000B8072CF0AFEFB3E002C0A0E0B0E017FDE6
:1008200007C0011594E019072CF00FEF13E002C088
:1008300000E010E0F7FC09C0E11484E0F8063CF0A9
:10084000EE24EA9493E0F92E02C0E12CF12CD7FCBF
:1008500009C0C11494E0D9063CF0CC24CA9483E0CA
:10086000D82E02C0C12CD12C30930B0120930A0149
:1008700050930D0140930C0170930F0160930E0192
:10088000F0931101E0931001B0931301A0931201B2
:100890001093150100931401F0921701E0921601D4
:1008A000D0921901C0921801DF91CF911F910F9141
:1008B000FF90EF90DF90CF90BF90AF909F908F9080
:1008C0000C94290310921A015BCF1F920F920FB65E
:1008D0000F9211248F938091E1001092E10083FF29
:1008E0000FC01092E90081E08093EB001092EC00C1
:1008F00082E38093ED0088E08093F0001092030182
:100900008F910F900FBE0F901F9018951F920F920E
:100910000FB60F9211242F933F934F935F936F93D2
:100920007F938F939F93AF93BF93CF93DF93EF9377
:10093000FF931092E9008091E80083FFEAC0909154
:10094000F1008091F100C091F1002091F100D0E020
:10095000D22B2091F1004091F10030E0342B4091F6
:10096000F1005091F10062EF6093E800863009F0E9
:1009700049C08CE790E0FC0165917491C617D707D8
:10098000E1F4FC0132966591749126173707A9F4BA
:10099000FC01349665917491FC0136968491242F64
:1009A00030E0352B2F3F310519F010F02FEF30E0FC
:1009B000281708F4822F3EEF0DC0079660E08D3AAD
:1009C0009607C9F6A6C0690F711D891B3093E80010
:1009D0008823A9F09091E800292F2570D9F392FD82
:1009E0009BC0982F813408F090E4FB01292F22232B
:1009F00051F344914093F10021503196F8CF903457
:100A000049F38AC0853049F48EEF8093E8000E9454
:100A1000FD02C068C093E3007FC0893059F5911191
:100A20003BC0C09303018EEF8093E80041E08DE46A
:100A300092E04093E9009C012F5F3F4FFC015491ED
:100A40005093EB00552359F0F90124912093EC00C9
:100A50009C012D5F3F4F3196E491E093ED004F5F95
:100A6000453011F0C901E5CF8EE18093EA00109284
:100A7000EA0052C0883039F4903871F40E94FD02C7
:100A8000809103012AC0811107C00E94FD021092CB
:100A9000F1001092F10039C0232BD9F5913A01F5FC
:100AA000813071F40E94FD02E4E7F0E08CE790E011
:100AB00024912093F10031968E179F07C9F725C026
:100AC000823029F40E94FD028091020106C0833029
:100AD00001F50E94FD02809100018093F10015C094
:100AE0009132B9F4893041F48091E80082FFFCCF63
:100AF0008BEF8093E80009C08A3019F4D09302018B
:100B000004C08B3031F4C09300018EEF8093E80075
:100B100003C081E28093EB00FF91EF91DF91CF91D1
:100B2000BF91AF919F918F917F916F915F914F9105
:100B30003F912F910F900FBE0F901F901895F89432
:020B4000FFCFE5
:020B42000100B0
:00000001FF
